{
  "contractName": "Tru",
  "abi": [
    {
      "constant": false,
      "inputs": [],
      "name": "renounceOwnership",
      "outputs": [],
      "payable": false,
      "stateMutability": "nonpayable",
      "type": "function"
    },
    {
      "constant": true,
      "inputs": [],
      "name": "owner",
      "outputs": [
        {
          "name": "",
          "type": "address"
        }
      ],
      "payable": false,
      "stateMutability": "view",
      "type": "function"
    },
    {
      "constant": true,
      "inputs": [],
      "name": "isOwner",
      "outputs": [
        {
          "name": "",
          "type": "bool"
        }
      ],
      "payable": false,
      "stateMutability": "view",
      "type": "function"
    },
    {
      "constant": false,
      "inputs": [
        {
          "name": "newOwner",
          "type": "address"
        }
      ],
      "name": "transferOwnership",
      "outputs": [],
      "payable": false,
      "stateMutability": "nonpayable",
      "type": "function"
    },
    {
      "anonymous": false,
      "inputs": [
        {
          "indexed": true,
          "name": "previousOwner",
          "type": "address"
        },
        {
          "indexed": true,
          "name": "newOwner",
          "type": "address"
        }
      ],
      "name": "OwnershipTransferred",
      "type": "event"
    },
    {
      "constant": false,
      "inputs": [
        {
          "name": "_votingProcessId",
          "type": "string"
        },
        {
          "name": "_candidates",
          "type": "bytes32[]"
        }
      ],
      "name": "registerCandidates",
      "outputs": [],
      "payable": false,
      "stateMutability": "nonpayable",
      "type": "function"
    },
    {
      "constant": true,
      "inputs": [
        {
          "name": "_votingProcessId",
          "type": "string"
        }
      ],
      "name": "getCandidates",
      "outputs": [
        {
          "name": "",
          "type": "bytes32[]"
        }
      ],
      "payable": false,
      "stateMutability": "view",
      "type": "function"
    },
    {
      "constant": false,
      "inputs": [
        {
          "name": "_votingProcessId",
          "type": "string"
        },
        {
          "name": "_candidateId",
          "type": "uint256"
        }
      ],
      "name": "vote",
      "outputs": [],
      "payable": false,
      "stateMutability": "nonpayable",
      "type": "function"
    },
    {
      "constant": true,
      "inputs": [
        {
          "name": "_votingProcessId",
          "type": "string"
        }
      ],
      "name": "getResults",
      "outputs": [
        {
          "name": "",
          "type": "bytes32[]"
        },
        {
          "name": "",
          "type": "uint256[]"
        }
      ],
      "payable": false,
      "stateMutability": "view",
      "type": "function"
    },
    {
      "constant": true,
      "inputs": [
        {
          "name": "_votingProcessId",
          "type": "string"
        }
      ],
      "name": "getVotesNumber",
      "outputs": [
        {
          "name": "",
          "type": "uint256"
        }
      ],
      "payable": false,
      "stateMutability": "view",
      "type": "function"
    },
    {
      "constant": true,
      "inputs": [],
      "name": "getTotalVotesNumber",
      "outputs": [
        {
          "name": "",
          "type": "uint256"
        }
      ],
      "payable": false,
      "stateMutability": "view",
      "type": "function"
    },
    {
      "constant": false,
      "inputs": [],
      "name": "kill",
      "outputs": [],
      "payable": false,
      "stateMutability": "nonpayable",
      "type": "function"
    }
  ],
  "bytecode": "0x6080604052600061001d6100c0640100000000026401000000009004565b9050806000806101000a81548173ffffffffffffffffffffffffffffffffffffffff021916908373ffffffffffffffffffffffffffffffffffffffff1602179055508073ffffffffffffffffffffffffffffffffffffffff16600073ffffffffffffffffffffffffffffffffffffffff167f8be0079c531659141344cd1fd0a4f28419497f9722a3daafe3b4186f6b6457e060405160405180910390a3506100c8565b600033905090565b611422806100d76000396000f3fe608060405234801561001057600080fd5b50600436106100c6576000357c010000000000000000000000000000000000000000000000000000000090048063715018a61161008e578063715018a61461042a57806382c18d69146104345780638da5cb5b146105835780638f32d59b146105cd578063a6385803146105ef578063f2fde38b146106b4576100c6565b8063139ed968146100cb5780632ff20f011461019a57806341c0e1b5146102f257806345534763146102fc57806363b5a05b1461040c575b600080fd5b610184600480360360208110156100e157600080fd5b81019080803590602001906401000000008111156100fe57600080fd5b82018360208201111561011057600080fd5b8035906020019184600183028401116401000000008311171561013257600080fd5b91908080601f016020809104026020016040519081016040528093929190818152602001838380828437600081840152601f19601f8201169050808301925050505050505091929192905050506106f8565b6040518082815260200191505060405180910390f35b610253600480360360208110156101b057600080fd5b81019080803590602001906401000000008111156101cd57600080fd5b8201836020820111156101df57600080fd5b8035906020019184600183028401116401000000008311171561020157600080fd5b91908080601f016020809104026020016040519081016040528093929190818152602001838380828437600081840152601f19601f8201169050808301925050505050505091929192905050506107ec565b604051808060200180602001838103835285818151815260200191508051906020019060200280838360005b8381101561029a57808201518184015260208101905061027f565b50505050905001838103825284818151815260200191508051906020019060200280838360005b838110156102dc5780820151818401526020810190506102c1565b5050505090500194505050505060405180910390f35b6102fa610953565b005b6103b56004803603602081101561031257600080fd5b810190808035906020019064010000000081111561032f57600080fd5b82018360208201111561034157600080fd5b8035906020019184600183028401116401000000008311171561036357600080fd5b91908080601f016020809104026020016040519081016040528093929190818152602001838380828437600081840152601f19601f8201169050808301925050505050505091929192905050506109ef565b6040518080602001828103825283818151815260200191508051906020019060200280838360005b838110156103f85780820151818401526020810190506103dd565b505050509050019250505060405180910390f35b610414610b31565b6040518082815260200191505060405180910390f35b610432610bb7565b005b6105816004803603604081101561044a57600080fd5b810190808035906020019064010000000081111561046757600080fd5b82018360208201111561047957600080fd5b8035906020019184600183028401116401000000008311171561049b57600080fd5b91908080601f016020809104026020016040519081016040528093929190818152602001838380828437600081840152601f19601f820116905080830192505050505050509192919290803590602001906401000000008111156104fe57600080fd5b82018360208201111561051057600080fd5b8035906020019184602083028401116401000000008311171561053257600080fd5b919080806020026020016040519081016040528093929190818152602001838360200280828437600081840152601f19601f820116905080830192505050505050509192919290505050610cf2565b005b61058b610f4a565b604051808273ffffffffffffffffffffffffffffffffffffffff1673ffffffffffffffffffffffffffffffffffffffff16815260200191505060405180910390f35b6105d5610f73565b604051808215151515815260200191505060405180910390f35b6106b26004803603604081101561060557600080fd5b810190808035906020019064010000000081111561062257600080fd5b82018360208201111561063457600080fd5b8035906020019184600183028401116401000000008311171561065657600080fd5b91908080601f016020809104026020016040519081016040528093929190818152602001838380828437600081840152601f19601f82011690508083019250505050505050919291929080359060200190929190505050610fd1565b005b6106f6600480360360208110156106ca57600080fd5b81019080803573ffffffffffffffffffffffffffffffffffffffff16906020019092919050505061116e565b005b6000610702610f73565b1515610776576040517f08c379a00000000000000000000000000000000000000000000000000000000081526004018080602001828103825260208152602001807f4f776e61626c653a2063616c6c6572206973206e6f7420746865206f776e657281525060200191505060405180910390fd5b6001826040518082805190602001908083835b6020831015156107ae5780518252602082019150602081019050602083039250610789565b6001836020036101000a0380198251168184511680821785525050505050509050019150509081526020016040518091039020600201549050919050565b60608060006001846040518082805190602001908083835b6020831015156108295780518252602082019150602081019050602083039250610804565b6001836020036101000a03801982511681845116808217855250505050505090500191505090815260200160405180910390209050606081600101805490506040519080825280602002602001820160405280156108965781602001602082028038833980820191505090505b50905060008090505b82600101805490508110156108f0578260000160008281526020019081526020016000206001015482828151811015156108d557fe5b9060200190602002018181525050808060010191505061089f565b5081600101818180548060200260200160405190810160405280929190818152602001828054801561094157602002820191906000526020600020905b81548152602001906001019080831161092d575b50505050509150935093505050915091565b61095b610f73565b15156109cf576040517f08c379a00000000000000000000000000000000000000000000000000000000081526004018080602001828103825260208152602001807f4f776e61626c653a2063616c6c6572206973206e6f7420746865206f776e657281525060200191505060405180910390fd5b6109d7610f4a565b73ffffffffffffffffffffffffffffffffffffffff16ff5b60606109f9610f73565b1515610a6d576040517f08c379a00000000000000000000000000000000000000000000000000000000081526004018080602001828103825260208152602001807f4f776e61626c653a2063616c6c6572206973206e6f7420746865206f776e657281525060200191505060405180910390fd5b6001826040518082805190602001908083835b602083101515610aa55780518252602082019150602081019050602083039250610a80565b6001836020036101000a0380198251168184511680821785525050505050509050019150509081526020016040518091039020600101805480602002602001604051908101604052809291908181526020018280548015610b2557602002820191906000526020600020905b815481526020019060010190808311610b11575b50505050509050919050565b6000610b3b610f73565b1515610baf576040517f08c379a00000000000000000000000000000000000000000000000000000000081526004018080602001828103825260208152602001807f4f776e61626c653a2063616c6c6572206973206e6f7420746865206f776e657281525060200191505060405180910390fd5b600254905090565b610bbf610f73565b1515610c33576040517f08c379a00000000000000000000000000000000000000000000000000000000081526004018080602001828103825260208152602001807f4f776e61626c653a2063616c6c6572206973206e6f7420746865206f776e657281525060200191505060405180910390fd5b600073ffffffffffffffffffffffffffffffffffffffff166000809054906101000a900473ffffffffffffffffffffffffffffffffffffffff1673ffffffffffffffffffffffffffffffffffffffff167f8be0079c531659141344cd1fd0a4f28419497f9722a3daafe3b4186f6b6457e060405160405180910390a360008060006101000a81548173ffffffffffffffffffffffffffffffffffffffff021916908373ffffffffffffffffffffffffffffffffffffffff160217905550565b610cfa610f73565b1515610d6e576040517f08c379a00000000000000000000000000000000000000000000000000000000081526004018080602001828103825260208152602001807f4f776e61626c653a2063616c6c6572206973206e6f7420746865206f776e657281525060200191505060405180910390fd5b610d76611344565b60408051908101604052806000604051908082528060200260200182016040528015610db15781602001602082028038833980820191505090505b50815260200160008152509050818160000181905250806001846040518082805190602001908083835b602083101515610e005780518252602082019150602081019050602083039250610ddb565b6001836020036101000a03801982511681845116808217855250505050505090500191505090815260200160405180910390206000820151816001019080519060200190610e4f92919061135e565b506020820151816002015590505060008090505b816000015151811015610f44576040805190810160405280836000015183815181101515610e8d57fe5b90602001906020020151815260200160008152506001856040518082805190602001908083835b602083101515610ed95780518252602082019150602081019050602083039250610eb4565b6001836020036101000a0380198251168184511680821785525050505050509050019150509081526020016040518091039020600001600083815260200190815260200160002060008201518160000155602082015181600101559050508080600101915050610e63565b50505050565b60008060009054906101000a900473ffffffffffffffffffffffffffffffffffffffff16905090565b60008060009054906101000a900473ffffffffffffffffffffffffffffffffffffffff1673ffffffffffffffffffffffffffffffffffffffff16610fb56111f6565b73ffffffffffffffffffffffffffffffffffffffff1614905090565b610fd9610f73565b151561104d576040517f08c379a00000000000000000000000000000000000000000000000000000000081526004018080602001828103825260208152602001807f4f776e61626c653a2063616c6c6572206973206e6f7420746865206f776e657281525060200191505060405180910390fd5b600180836040518082805190602001908083835b6020831015156110865780518252602082019150602081019050602083039250611061565b6001836020036101000a0380198251168184511680821785525050505050509050019150509081526020016040518091039020600001600083815260200190815260200160002060010160008282540192505081905550600180836040518082805190602001908083835b60208310151561111657805182526020820191506020810190506020830392506110f1565b6001836020036101000a03801982511681845116808217855250505050505090500191505090815260200160405180910390206002016000828254019250508190555060016002600082825401925050819055505050565b611176610f73565b15156111ea576040517f08c379a00000000000000000000000000000000000000000000000000000000081526004018080602001828103825260208152602001807f4f776e61626c653a2063616c6c6572206973206e6f7420746865206f776e657281525060200191505060405180910390fd5b6111f3816111fe565b50565b600033905090565b600073ffffffffffffffffffffffffffffffffffffffff168173ffffffffffffffffffffffffffffffffffffffff1614151515611286576040517f08c379a00000000000000000000000000000000000000000000000000000000081526004018080602001828103825260268152602001806113d16026913960400191505060405180910390fd5b8073ffffffffffffffffffffffffffffffffffffffff166000809054906101000a900473ffffffffffffffffffffffffffffffffffffffff1673ffffffffffffffffffffffffffffffffffffffff167f8be0079c531659141344cd1fd0a4f28419497f9722a3daafe3b4186f6b6457e060405160405180910390a3806000806101000a81548173ffffffffffffffffffffffffffffffffffffffff021916908373ffffffffffffffffffffffffffffffffffffffff16021790555050565b604080519081016040528060608152602001600081525090565b82805482825590600052602060002090810192821561139a579160200282015b8281111561139957825182559160200191906001019061137e565b5b5090506113a791906113ab565b5090565b6113cd91905b808211156113c95760008160009055506001016113b1565b5090565b9056fe4f776e61626c653a206e6577206f776e657220697320746865207a65726f2061646472657373a165627a7a72305820a4522f728c7149e2ede132dde0082cf6343b81415121814ab6a1e266c3554ae20029",
  "source": "pragma solidity >=0.4.23 <0.6.0;\n\nimport 'openzeppelin-solidity/contracts/ownership/Ownable.sol';\n\ncontract Tru is Ownable {\n\n    struct Candidate {\n        bytes32 candidateName;\n        uint candidateVotes;\n    }\n\n    struct VotingProcess {\n        mapping(uint => Candidate) candidates;\n        bytes32[] candidatesIdx;\n        uint votesNumber;\n    }\n\n    mapping(string => VotingProcess) votingProcesses;\n\n    uint totalVotes;\n\n    function registerCandidates(string memory _votingProcessId, bytes32[] memory _candidates) public onlyOwner {\n        VotingProcess memory vp = VotingProcess({candidatesIdx : new bytes32[](0), votesNumber : 0});\n        vp.candidatesIdx = _candidates;\n        votingProcesses[_votingProcessId] = vp;\n        for (uint i = 0; i < vp.candidatesIdx.length; i++) {\n            votingProcesses[_votingProcessId].candidates[i] = Candidate({candidateName : vp.candidatesIdx[i], candidateVotes : 0});\n        }\n    }\n\n    function getCandidates(string memory _votingProcessId) public view onlyOwner returns (bytes32[] memory){\n        return votingProcesses[_votingProcessId].candidatesIdx;\n    }\n\n    function vote(string memory _votingProcessId, uint _candidateId) public onlyOwner {\n        votingProcesses[_votingProcessId].candidates[_candidateId].candidateVotes += 1;\n        votingProcesses[_votingProcessId].votesNumber += 1;\n        totalVotes += 1;\n    }\n\n    function getResults(string memory _votingProcessId) public view returns(bytes32[] memory, uint[] memory){\n        VotingProcess storage vp = votingProcesses[_votingProcessId];\n        uint[] memory res = new uint[](vp.candidatesIdx.length);\n        for(uint i = 0; i < vp.candidatesIdx.length; i++){\n            res[i] = vp.candidates[i].candidateVotes;\n        }\n        return (vp.candidatesIdx, res);\n    }\n\n    function getVotesNumber(string memory _votingProcessId) public view onlyOwner returns(uint){\n        return votingProcesses[_votingProcessId].votesNumber;\n    }\n\n    function getTotalVotesNumber() public view onlyOwner returns(uint){\n        return totalVotes;\n    }\n\n    function kill() public onlyOwner {\n        selfdestruct(address(int160(owner())));\n    }\n}\n",
  "sourcePath": "/home/annipi/TRUCHAIN/contracts/contracts/Tru.sol",
  "compiler": {
    "name": "solc",
    "version": "0.5.2+commit.1df8f40c.Emscripten.clang"
  },
  "schemaVersion": "3.0.11",
  "updatedAt": "2020-04-02T21:38:09.471Z",
  "devdoc": {
    "methods": {
      "isOwner()": {
        "details": "Returns true if the caller is the current owner."
      },
      "owner()": {
        "details": "Returns the address of the current owner."
      },
      "renounceOwnership()": {
        "details": "Leaves the contract without owner. It will not be possible to call `onlyOwner` functions anymore. Can only be called by the current owner.     * NOTE: Renouncing ownership will leave the contract without an owner, thereby removing any functionality that is only available to the owner."
      },
      "transferOwnership(address)": {
        "details": "Transfers ownership of the contract to a new account (`newOwner`). Can only be called by the current owner."
      }
    }
  },
  "userdoc": {
    "methods": {}
  }
}